:20000000008020207F350000333100003331000000000000000000000000000000000000A4
:20002000000000000000000000000000333100000000000000000000333100003331000094
:20004000333100003331000033310000333100003331000033310000333100003331000080
:2000600000000000333100003331000000000000000000003331000033310000333100008C
:20008000333100003331000033310000333100003331000033310000000000000000000008
:2000A00033310000333100000000000000000000333100000000000033310000333100004C
:2000C00000B5BDB07F4C804D7D203890460103F02AFA284603F045FA012040037B49086073
:2000E00008657B4A7B4B136015681560086008651360106810601D96304660300860A02092
:2001000003F02FFA00250D20734E7719C1B2204603F0B2F97978204603F0AEF9B978204621
:2001200003F0AAF9F978204603F0A6F93979204603F0A2F97979204603F09EF9B9792046A0
:2001400003F09AF9F979204603F096F9397A204603F092F9797A204603F08EF9B97A2046BC
:2001600003F08AF9F97A204603F086F9397B204603F082F9797B204603F07EF9B97B2046D8
:2001800003F07AF9F97B204603F076F9397C204603F072F9797C204603F06EF9B97C133512
:2001A000204603F069F9F87C262DAED100254D204A4E7719C1B2204603F05EF9797820460A
:2001C00003F05AF9B978204603F056F9F978204603F052F93979204603F04EF97979204641
:2001E00003F04AF9B979204603F046F9F979204603F042F9397A204603F03EF9797A20465D
:2002000003F03AF9B97A204603F036F9F97A204603F032F9397B204603F02EF9797B204678
:2002200003F02AF9B97B204603F026F9F97B204603F022F9397C204603F01EF9797C204694
:2002400003F01AF9B97C204603F016F9F97C1435204603F011F9387D282DAAD14420C543E9
:2002600037951B351E4FC1B2204603F005F9002D0ED07E192B20315C204603F0FDF82C2017
:20028000315C204603F0F8F82D20305CED1CEAE7379D09354720134FC1B2204603F0ECF84A
:2002A000002D21D07E193D20315C204603F0E4F83E20315C204603F0DFF83F20305CED1C5B
:2002C000EAE7C0460080104000D4300090120A408C80424081000E0078370000283700005C
:2002E000FC360000BE36000000254420EB4E7719C1B2204603F0C0F87978204603F0BCF804
:20030000B978204603F0B8F8F978204603F0B4F83979204603F0B0F87979204603F0ACF88B
:20032000B979204603F0A8F8F979204603F0A4F8397A204603F0A0F8797A204603F09CF8A7
:20034000B97A204603F098F8F97A204603F094F8397B204603F090F8797B204603F08CF8C3
:20036000B97B204603F088F8F97B204603F084F8397C204603F080F8797C204603F07CF8DF
:20038000B97C204603F078F8F97C204603F074F8397D204603F070F8797D204603F06CF8FB
:2003A000B97D204603F068F8F97D204603F064F8397E1935204603F05FF8787E4B2D96D199
:2003C00000254D20B6494F19C1B2204603F054F87978204603F050F8B978204603F04CF8AC
:2003E000F978204603F048F83979204603F044F87979204603F040F8B979204603F03CF86A
:20040000F979204603F038F8397A204603F034F8797A204603F030F8B97A204603F02CF885
:20042000F97A204603F028F8397B204603F024F8797B204603F020F8B97B204603F01CF8A1
:20044000F97B204603F018F8397C204603F014F8797C204603F010F8B97C204603F00CF8BD
:20046000F97C204603F008F8397D204603F004F8797D204603F000F8B97D204602F0FCFFD3
:20048000F97D1835204602F0F7FF387E482D99D10025412083494F19C1B2204602F0ECFF46
:2004A0007978204602F0E8FFB978204602F0E4FFF978204602F0E0FF3979204602F0DCFF13
:2004C0007979204602F0D8FFB979204602F0D4FFF979204602F0D0FF397A204602F0CCFF2F
:2004E000797A204602F0C8FFB97A204602F0C4FFF97A204602F0C0FF397B204602F0BCFF4B
:20050000797B204602F0B8FFB97B204602F0B4FFF97B204602F0B0FF397C204602F0ACFF66
:20052000797C204602F0A8FFB97C204602F0A4FFF97C204602F0A0FF397D204602F09CFF82
:20054000797D1635204602F097FFB87D582DA1D100273B973A9706203AA908252A4602F0DE
:200560005DF906463B973A9707203AA92A4602F055F90146002E00D031464B4D4B4802F0A3
:20058000D5FC4B4802F0EDFF3AA90320087001201890024602F042F906464648314602F01A
:2005A000C5FC002E4ED1424802F0DBFF3AA90F702D2048700420022202F030F906463E483B
:2005C000314602F0B3FC002E3CD1394802F0C9FF3AA90F700D20487003200222119002F06C
:2005E0001DF906463548314602F0A0FC002E29D12F4802F0B6FF32483A9005203AA904225F
:20060000369202F00BF906462E48314602F08EFC002E17D1264802F0A4FF3AA93698087025
:20062000E220487002263046324602F0F7F801463690254802F07AFC1D4802F092FF369871
:20064000002847D06D20379C20490E19C1B2204802F012FF4620315C1D4802F00DFF002C0B
:2006600008D04720315C1A4802F006FF4820305CE41CE9E73B973A9706203AA90824224651
:2006800002F0CCF83B973A9707203AA9224602F0C5F8284602F065FFECE7C046E13500002D
:2006A0002D360000883500000048E801FD37000000D430009F370000D1370000E8370000B4
:2006C00000008842B937000010380000763600000080104010966C208B49CE19C1B22046D6
:2006E00002F0CAFE7178204602F0C6FEB178204602F0C2FEF178204602F0BEFE317920466D
:2007000002F0BAFE7179204602F0B6FEB179204602F0B2FEF179204602F0AEFE317A204688
:2007200002F0AAFE717A204602F0A6FEB17A204602F0A2FEF17A204602F09EFE317B2046A4
:2007400002F09AFE717B204602F096FEB17B204602F092FEF17B204602F08EFE317C2046C0
:2007600002F08AFE717C204602F086FEB17C1337204602F081FEF07C262FADD1284602F049
:20078000F0FE284602F0EDFE284602F0EAFE3AA8811E3291C01E15903AA8811E3491C01EED
:2007A00017903AA8811E3391C01E16903AA8811E3191C01E14903AA8811E3091C01E139041
:2007C0003AA8811E2F91C01E12903AA8811E0F91C01E07903AA8811E0E91C01E06903AA84C
:2007E000811E0D91C01E05903AA8811E0C91C01E04903AA8811E0B91C01E03903AA8811EAA
:200800000A91C01E02903AA8811E0991C01E01903AA8811E0891C01E00900020359003E0F3
:2008200002F09FFE3698401C3690384805680127B8032840414241412690800B2290FB030B
:200840002B40D80B23904A1C3148401C2893002B00D00A4600D035983E042E40310C21911A
:20086000531C389909012E9141182596002E00D0134600D001467E0437952E40700C209005
:200880005D1C24480A182496002E00D01D4600D00A46780537990140480D1F906B1C1D9848
:2008A00010183791002900D02B4600D010461906279135991E972B9309D0DDB2294602F0D7
:2008C00003FD024614481118042D2E9228D32C91359E124806803B963A9606203AA9082716
:2008E0003A4601F09BFF05463B963A9607203AA93A4601F093FF0746002D00D02F46359868
:200900002A90299040E0C0465137000080130A40E7030000B80B000030F8FFFF00002020C6
:200920002C9108B2E5494143CA0FC9148F180025E349495F401A2C21C94302F0C5FCC019F9
:200940003121C943884200DC0846322800DB322001466E3129916E21091A2A91D8492C9ACA
:200960000A803AA90D704D70FF228A706D23DB431B1ACB700D714D718A716E38C87106205B
:20098000082201F04BFF0746CE49369841438AB2CD48824201D900F068FC1B921C912D97DB
:2009A0006721204602F068FD72252046294602F063FD61262046314602F05EFD7921204683
:2009C00002F05AFD20272046394602F055FD2046294602F051FD20461A96314602F04CFD81
:2009E00077212046199102F047FD3D252046294602F042FD22993031204602F03DFD239947
:200A00003031204602F038FD21993031204602F033FD20993031204602F02EFD1F9930318F
:200A2000204602F029FD20462197394602F024FD6C212046209102F01FFD6921204602F0F4
:200A40001BFD6E2120460E4602F016FD65212046229102F011FD20462395294602F00CFD09
:200A60003027312526980028294600D03946204602F002FD28980028294600D039462046C2
:200A800002F0FAFC25980028294600D03946204602F0F2FC24980028294600D0394620467D
:200AA00002F0EAFC3798002800D03D462046294602F0E2FC2046219902F0DEFC6327204693
:200AC000394602F0D9FC2046314602F0D5FC74252046294602F0D0FC2046239902F0CCFC28
:200AE0002798002826D037972B98C6B20A273046394602F083FC0546394602F07FFC27918A
:200B000030216F432B98C01B0F4608433AAD28706421304602F072FCA9780A2E289619D3B7
:200B2000279A3A43642E1AD3384300212B910146119F17E03021204602F09EFC20212046C8
:200B400002F09AFC7320379064202B906F266D2137466AE06A7818982B901E9F02E01898EE
:200B60002B90109F26463AA842708170781E032102F044FC481C0025032800D00546329C91
:200B8000324617D03E46A019274641781046144602F072FC012D0BD03846B71E815D2046E3
:200BA00002F06AFCAD1E3E46329C484AEBD101E0771E22462B980028144611D11598C519E2
:200BC000A978204602F058FC6978204602F054FCFF1E2978204602F04FFCED1E002FEFD164
:200BE0002021204602F048FC6D21204602F044FC6F272046394602F03FFC6421204602F06D
:200C00003BFC6521204602F037FC3D21204602F033FC28980428209E16D36B25622023904F
:200C20005F2022902B961A990F46204602F024FC2046314602F020FC20462B9902F01CFC23
:200C40003E46379F229902E066212397199D204602F012FC2046239902F00EFC6C2120462F
:200C600002F00AFC2046314602F006FC2046394602F002FC2046294602F0FEFB202120466F
:200C800002F0FAFB7021204602F0F6FB6F21204602F0F2FB7321204602F0EEFB3D21204625
:200CA00002F0EAFB2E9805B2002D11D4000414D13021204602F0E0FB81E0C0469999FFFFCA
:200CC00000002020CDCCFFFF33330000008010402D21204602F0D0FB6D4200270A26284622
:200CE000314602F08BFB4643A91B302631433AAAD1550A2D25D3082F23D80A2102F07EFBED
:200D000031433AA8C0194170642D1CD3072F1AD86421284602F072FB0A2102F06FFB3143FE
:200D2000FE1C3AA8C01981703898C100284602F065FBEA498D4207D9072F37460546CDD31C
:200D400002E07E1C00E0BE1C701E0321379002F055FB481C0021032800D00146349C02D138
:200D60003746DF4D15E0DE4DA01927460C464178284602F081FB012C0AD03846B71E815D65
:200D8000284602F079FBA11E3E46349CECD100E0771E379802282C4611D31798C519A9783D
:200DA000204602F069FB6978204602F065FBFF1E2978204602F060FBED1E002FEFD1202132
:200DC000204602F059FB6521204602F055FB72252046294602F050FB2046294602F04CFB82
:200DE0003D21204602F048FB2C9805B2002D06D4000409D13021204602F03EFB76E02D2114
:200E0000204602F039FB6D4200270A262846314602F0F4FA4643A91B302631433AAAD1555A
:200E20000A2D25D3082F23D80A2102F0E7FA31433AA8C0194170642D1CD3072F1AD8642146
:200E4000284602F0DBFA0A2102F0D8FA3143FE1C3AA8C01981703898C100284602F0CEFA7B
:200E60009E498D4207D9072F37460546CDD302E07E1C00E0BE1C701E0321379002F0BEFAE5
:200E8000481C0021032800D00146339C02D13746934D15E0924DA01927460C464178284619
:200EA00002F0EAFA012C0AD03846B71E815D284602F0E2FAA11E3E46339CECD100E0771EA4
:200EC000379802282C4611D31698C519A978204602F0D2FA6978204602F0CEFAFF1E297833
:200EE000204602F0C9FAED1E002FEFD12021204602F0C2FA4C21204602F0BEFA3D21204647
:200F000002F0BAFA2999080434D08DB200270A262846314602F072FA4643A91B3026314369
:200F20003AAAD1550A2D2AD3082F28D80A2102F065FA31433AA8C0194170642D21D3072F25
:200F40001FD86421284602F059FA0A2102F056FA3143FE1C3AA8C01981703898C1002846BC
:200F600002F04CFA5D498D420CD9072F37460546CDD307E03021204602F07EFA3DE07E1C82
:200F800000E0BE1C701E0321379002F037FA481C0021032800D00146319C02D13746504D7A
:200FA00015E04F4DA01927460C464178284602F063FA012C0AD03846B71E815D284602F01A
:200FC0005BFAA11E3E46319CECD100E0771E379802282C4611D31498C519A978204602F028
:200FE0004BFA6978204602F047FAFF1E2978204602F042FAED1E002FEFD12021204602F04D
:201000003BFA5221204602F037FA3D21204602F033FA2A99080434D08DB200270A262846E5
:20102000314602F0EBF94643A91B302631433AAAD1550A2D2AD3082F28D80A2102F0DEF9E3
:2010400031433AA8C0194170642D21D3072F1FD86421284602F0D2F90A2102F0CFF93143F5
:20106000FE1C3AA8C01981703898C100284602F0C5F91A498D420CD9072F37460546CDD346
:2010800007E03021204602F0F7F942E07E1C00E0BE1C701E0321379002F0B0F9481C0021C1
:2010A000032800D00146309C02D137460C4D1AE00B4DA01927460C464178284602F0DCF9C1
:2010C000012C0FD03846B71E815D284602F0D4F9A11E3E46309CECD105E0C046E703000005
:2010E00000801040771E379802282C4611D31398C519A978204602F0BFF96978204602F049
:20110000BBF9FF1E2978204602F0B6F9ED1E002FEFD12D9F002F00D19DE02021204602F07A
:20112000ABF96D21204602F0A7F96F252046294602F0A2F97421204602F09EF92046294636
:2011400002F09AF972262046314602F095F95F21204602F091F96521204602F08DF92046E9
:20116000314602F089F92046314602F085F92046294602F081F92046314602F07DF93D2153
:20118000204602F079F90A263846314602F036F90746314602F032F9379130257E432D9CB7
:2011A000A01B28433AAE30706421204602F026F9B1780A2C09D3379A2A43642C08D3284336
:2011C000032300213791014605E07278012300E00223189837903AA8427081701D46581EEC
:2011E000032102F00BF9481C0026032800D006462F9CFD4F18D02A46A0182546417838463B
:201200003C46174602F038F9012E0BD02846BD1EC15D2746204602F02FF9B61E2A462F9C5F
:20122000EAD101E07D1E2746379800283C4611D112984619B178204602F01EF971782046BF
:2012400002F01AF9ED1E3178204602F015F9F61E002DEFD12D9F0D21204602F00DF90A21EB
:20126000204602F009F91C991B9A88039108081880B2DE49884200D9D8E020203AA900F09F
:2012800011FE002500282D9706D1212039A900F009FE002800D1E1E02C9037952F462E4612
:2012A00010203AA900F0FEFD00281FD12B972E963A9E3AA94F78112000F0F4FD002815D1F0
:2012C0002A97289629953A9D3AA94E78122000F0E9FD00280AD1269627953A9D3AA94E784E
:2012E000132000F0DFFD002800D1D1E03030289065252046294602F0BFF86E21204602F03E
:20130000BBF86321204602F0B7F86F212A91204602F0B2F864212E91204602F0ADF820469B
:20132000294602F0A9F872272046394602F0A4F820262046314602F09FF82046394602F01C
:201340009BF8204629462B9502F096F861213791204602F091F820462E9902F08DF82046B0
:201360003146299602F088F82046294602F084F82046394602F080F82046394602F07CF8E8
:2013800020462A9D294602F077F82046394602F073F82046314602F06FF874272046394658
:2013A00002F06AF82046294602F066F82046394602F062F82046379902F05EF86C2520460E
:2013C000294602F059F83D262046314602F054F82C993031204602F04FF82046299902F0FE
:2013E0004BF820462E9902F047F820462B9902F043F82046294602F03FF82046394602F020
:201400003BF82046379902F037F82046314602F033F82046289902F02FF82D9F0D212046A8
:2014200002F02AF80A21204602F026F8002F704801D1FFF7F5F900263B963A9606203AA98A
:2014400008252A4601F0EAF93B963A9607203AA92A4601F0E3F96748FFF7E2F93A980006DB
:201460003AA94A781204101839AA13781B02C01852788618222000F015FD0028379605D1AF
:20148000232039A900F00EFD002807D02C9005E73AA82C9900291AD0302028E73A98000694
:2014A0003AA94A781204101839AA13781B02C01852788718242000F0F5FC002805D1252015
:2014C00039A900F0EFFC00282DD02C90E7E624953A99259140782C906121204601F0CCFF47
:2014E0006C252046294601F0C7FF2046294601F0C3FF2021204601F0BFFF4D21204601F02C
:20150000BBFF3121204601F0B7FF3D21204601F0B3FF379F002F23962BD42FD130212046D7
:2015200001F0AAFFA2E03A9800063AA94A781204101839AA13781B02C018527886182620C3
:2015400000F0B0FC002812D1272039A900F0AAFC00280CD13A9800063AA949780904081877
:2015600039A90A78120280184978451800202C9096E62D21204601F07FFF7F4200260A25AC
:201580003846294601F03AFF4543791B302529433AAA91550A2F25D3082E23D80A2101F00F
:2015A0002DFF29433AA880194170642F26D3072E24D86421384601F021FF0A2101F01EFF5D
:2015C0002943F51C3AA8801981703898C100384601F014FF08498F4211D9072E2E4607460D
:2015E000CDD30CE0751C0AE000801040CC0C000000A60E00007C9200E7030000B51C681E39
:201600000321379001F0FAFE481C0026032800D006460F9901D12F4613E048190F464178D4
:20162000204601F029FF012E0AD03846AF1E415D204601F021FFB61E3D460F99EDD100E025
:201640006F1E3798022811D30798C519A978204601F012FF6978204601F00EFFFF1E297817
:20166000204601F009FFED1E002FEFD12021204601F002FF4D21204601F0FEFE32212046FE
:2016800001F0FAFE3D21204601F0F6FE2B9F002F05D409D13021204601F0EEFE72E02D21D8
:2016A000204601F0E9FE7F4200260A253846294601F0A4FE4543791B302529433AAA9155AF
:2016C0000A2F25D3082E23D80A2101F097FE29433AA880194170642F1CD3072E1AD8642131
:2016E000384601F08BFE0A2101F088FE2943F51C3AA8801981703898C100384601F07EFEEB
:20170000F5498F4207D9072E2E460746CDD302E0751C00E0B51C681E0321379001F06EFE52
:20172000481C0027032800D007460E9901D12E4613E048190E464178204601F09DFE012F66
:201740000AD03046AE1E415D204601F095FEBF1E35460E99EDD100E06E1E3798022811D3DF
:2017600006988519A978204601F086FE6978204601F082FEF61E2978204601F07DFEED1EE7
:20178000002EEFD12021204601F076FE4D21204601F072FE3321204601F06EFE3D2120463F
:2017A00001F06AFE2E9D002D2A9F05D40AD13021204601F061FE75E02D21204601F05CFE00
:2017C0006D422E9500262E9F0A253846294601F015FE4543791B302529433AAA91550A2FA4
:2017E00025D3082E23D80A2101F008FE29433AA880194170642F1CD3072E1AD8642138465A
:2018000001F0FCFD0A2101F0F9FD2943F51C3AA8801981703898C100384601F0EFFDAE4900
:201820008F4207D9072E2E460746CDD302E0751C00E0B51C681E0321379001F0DFFD481C9B
:201840000027032800D007460D9901D12E4613E048190E464178204601F00EFE012F0AD05F
:201860003046AE1E415D204601F006FEBF1E35460D99EDD100E06E1E379802282A9F11D35F
:2018800005988519A978204601F0F6FD6978204601F0F2FDF61E2978204601F0EDFDED1E7A
:2018A000002EEFD12021204601F0E6FD4D21204601F0E2FD3421204601F0DEFD3D212046D0
:2018C00001F0DAFD299D002D05D409D13021204601F0D2FD77E02D21204601F0CDFD6D42AE
:2018E00000262F460A253846294601F087FD4543791B3022379211433AAA91550A2F27D334
:20190000082E25D83D460A2101F078FD379F39433AA880194170642D1CD3072E1AD86421D6
:20192000284601F06BFD0A2101F068FD3943F71C3AA8801981703898C100284601F05EFD19
:2019400065498D4207D9072E3E460546C9D302E0771C00E0B71C781E0321379001F04EFDA5
:20196000481C0025032800D005460C9901D13E4613E0C8190E464178204601F07DFD012DBD
:201980000AD03046BE1EC15D204601F075FDAD1E37460C99EDD100E07E1E379802282A9F4B
:2019A00011D304988519A978204601F065FD6978204601F061FDF61E2978204601F05CFD34
:2019C000ED1E002EEFD12898000201B22E91C61920252046294601F04FFD7C21204601F0B0
:2019E0004BFD2046294601F047FD31272046394601F042FD30212046379101F03DFD6D21F0
:201A0000204601F039FD7321204601F035FD2046294601F031FD4D21204601F02DFD2046D3
:201A2000394601F029FD3D21204601F025FD35B22E98002806D4300409D13021204601F0D4
:201A40001BFD74E02D21204601F016FD6D4200260A272846394601F0D1FC4743E91B379F4D
:201A600039433AAA91550A2D25D3082E23D80A2101F0C4FC39433AA880194170642D1CD3BC
:201A8000072E1AD86421284601F0B8FC0A2101F0B5FC3943F71C3AA8801981703898C1002E
:201AA000284601F0ABFC0C498D4207D9072E3E460546CDD302E0771C00E0B71C781E032196
:201AC0002E9001F09BFC481C0025032800D005460B9903D13E4615E0E7030000C8190E46E1
:201AE0004178204601F0C8FC012D0AD03046BE1EC15D204601F0C0FCAD1E37460B99EDD1DD
:201B000000E07E1E2E98022811D303988519A978204601F0B1FC6978204601F0ADFCF61E22
:201B20002978204601F0A8FCED1E002EEFD12798000207B2269946182021204601F09CFC49
:201B40004D21204601F098FC3221204601F094FC3D21204601F090FC35B2002F06D430048D
:201B600009D13021204601F087FC72E02D21204601F082FC6D4200260A272846394601F007
:201B80003DFC4743E91B379F39433AAA91550A2D25D3082E23D80A2101F030FC39433AA85C
:201BA00080194170642D1CD3072E1AD86421284601F024FC0A2101F021FC3943F71C3AA886
:201BC000801981703898C100284601F017FCB4498D4207D9072E3E460546CDD302E0771CB3
:201BE00000E0B71C781E03212E9001F007FC481C0025032800D005460A9901D13E4613E00B
:201C0000C8190E464178204601F036FC012D0AD03046BE1EC15D204601F02EFCAD1E37460C
:201C20000A99EDD100E07E1E2E98022811D302988519A978204601F01FFC6978204601F0F0
:201C40001BFCF61E2978204601F016FCED1E002EEFD12498000207B223994618202120461E
:201C600001F00AFC4D21204601F006FC3321204601F002FC3D21204601F0FEFB35B2002F39
:201C800006D4300409D13021204601F0F5FB72E02D21204601F0F0FB6D4200260A2728466E
:201CA000394601F0ABFB4743E91B379F39433AAA91550A2D25D3082E23D80A2101F09EFB4F
:201CC00039433AA880194170642D1CD3072E1AD86421284601F092FB0A2101F08FFB394322
:201CE000F71C3AA8801981703898C100284601F085FB6B498D4207D9072E3E460546CDD3EE
:201D000002E0771C00E0B71C781E03212E9001F075FB481C0025032800D00546099901D17F
:201D20003E4613E0C8190E464178204601F0A4FB012D0AD03046BE1EC15D204601F09CFBE2
:201D4000AD1E37460999EDD100E07E1E2E98022811D301988519A978204601F08DFB697873
:201D6000204601F089FBF61E2978204601F084FBED1E002EEFD12598000207B22C99461869
:201D80002021204601F078FB4D21204601F074FB3421204601F070FB3D21204601F06CFBD1
:201DA00035B2002F05D4300408D130212046FFF732FB2D21204601F05FFB6D4200260A2748
:201DC0002846394601F01AFB4743E91B379F39433AAA91550A2D25D3082E23D80A2101F0EA
:201DE0000DFB39433AA880194170642D1CD3072E1AD86421284601F001FB0A2101F0FEFA98
:201E00003943F71C3AA8801981703898C100284601F0F4FA22498D4207D9072E3E460546CB
:201E2000CDD302E0771C00E0B71C781E0321379001F0E4FA481C0025032800D0054608991A
:201E400001D13E4613E0C8190E464178204601F013FB012D0AD03046BE1EC15D204601F017
:201E60000BFBAD1E37460899EDD100E07E1E3798022801D2FFF7D1FA00988519A9782046EF
:201E800001F0FAFA6978204601F0F6FAF61E2978204601F0F1FAED1E002EEFD1FFF7BDFA98
:201EA000E7030000F0B587B000910590BE49BF4DBF4A01204603039004032E602E650A608B
:201EC000086808602E602E650A60086808602C60A027384601F045FBB648B34908602E61D4
:201EE0002E64384601F03DFB2C612C61B148AE4908602E612E64384601F033FB2C6038466F
:201F000001F02FFB2C612E602E65A948A649086008680860384601F024FB2C60384601F04F
:201F200020FB2C61A348A04908602E612E64384601F017FB2C60384601F013FB2C619D48A0
:201F4000994908602E612E64384601F00AFB2C60384601F006FB2C612E602E659448924941
:201F6000086008680860384601F0FBFA2C60384601F0F7FA2C612E602E658B498C48086013
:201F800008680860384601F0ECFA2C60384601F0E8FA2C618748844908602E612E64384607
:201FA00001F0DFFA2C60384601F0DBFA2C6181487D4908602E612E64384601F0D2FA2C601B
:201FC000384601F0CEFA2C612E602E6578487649086008680860384601F0C3FA04942C600D
:201FE0003846754F01F0BDFA3868800439D438686E4B049A1A611E601E6506966A4E069F5A
:202000006B4D3560316831603842039800D0D8E31A613046674E06601F611F64A025284667
:202020001C4601F09EFA04982060284601F099FA049820615C4806600646276127642846B3
:2020400001F08FFA04982060284601F08AFA0498206105981F2820D85648306027612764CD
:2020600021E06425A02001F07CFA38683042BED0ACB2012CBBD0A02001F073FA38683042C9
:20208000B5D0022CB3D0A02001F06BFA38683042ADD0ED1E2804E5D1A9E727602765444849
:2020A0003060306830602746A025284601F059FA049E2660284601F054FA2661059CE006A1
:2020C00006D439483B49016006983861386407E006983860386536483349086008680860F9
:2020E000A025284601F03DFA049E3E60284601F038FA3E61200706D42B482E49016006982B
:202100003861386407E006983860386528482649086008680860A025284601F022FA049ECF
:202120003E60284601F01DFA3E61600706D41E482049016006983861386407E0069838608B
:2021400038651B481849086008680860A025284601F007FA049E3E60284601F002FA3E617F
:20216000A00706D410481349016006983861386407E00698386038650D480B4908600868BB
:202180000860A025284601F0ECF9049E3E60284601F0E7F93E61E00710D1034C05492160CA
:2021A000069D3D613D6411E08C80424090120A4081000E008100020080130A40069D3D60A3
:2021C0003D65E34EE34C266020682060A026304601F0C7F904983860304601F0C2F9049890
:2021E00038613D603D65DA48206020682060304601F0B7F904983860304601F0B2F9D648E2
:20220000006828422F4600D069E2D3480068D34B049A1A611F601F65CD4DCE4E356031683B
:2022200031601F601F65356031683160384200D079E21F601F653560306830601A60A025A7
:2022400028461F4601F08DF9C54C34600698386106983864284601F084F9049E3E613E6162
:20226000BC4804600698386106983864284601F078F93E60284601F074F93E610698386076
:2022800006983865B34CB248206020682060284601F067F93E60284601F063F93E61B048D3
:2022A00020600698386106983864284601F059F93E60284601F055F93E61A9482060069883
:2022C000386106983864284601F04BF93E60284601F047F93E6106983860069838652146D4
:2022E0009B4C0C6008680860284601F03AF93E60284601F036F93E610698386006983865E5
:2023000094490C60086808600C46284601F029F93E60284601F025F93E6191482060069818
:20232000386106983864284601F01BF93E60284601F017F93E61069838600698386584486E
:20234000206020682060284601F00BF93E60284601F007F93E6106983860069838657C48C1
:20236000206020682060284601F0FBF83E60069E284601F0F6F878480068304200D0D5E1D4
:2023800075480068754C049A226126603346274626656F4D6F4E356031683160184200D1DC
:2023A000D1E03946069F0F600F653560306830600A616B4C34600E460F610F64A025284688
:2023C000144601F0CEF83460284601F0CAF83760376560495E48086008680860284601F016
:2023E000C0F87D20000201F0BCF8376037655949574A0A6008680860376037650A6008681C
:2024000008603460284601F0ACF855485149086037613764284601F0A4F834613461FE4880
:20242000F949086037613764284601F09AF83460284601F096F8346137603765F548F2490D
:20244000086008680860284601F08BF83460284601F087F83461F048EB490860376137644C
:20246000284601F07EF83460284601F07AF83461E948E549086037613764284601F071F8CB
:202480003460284601F06DF8346137603765E148DD49086008680860284601F062F8346040
:2024A000284601F05EF8346137603765D948D649086008680860284601F053F83460284673
:2024C00001F04FF83461D448CF49086037613764284601F046F83460284601F042F8346101
:2024E00037603765C849CB48086008680860284601F037F83460284601F033F8346137606D
:202500003765C448C049086008680860284601F028F83460284601F024F8BC480068384256
:2025200000D027E1B9480068B94C049A226127603B4627462365B74DB34E35603168316073
:20254000184200D03AE1002101203B46069F27E081000E008C80424080130A4090120A40E1
:2025600081000200AC481860276127641E46A025284600F0F6FF049F2760284600F0F1FF65
:202580003A462761069F27602765A24D35603068306000200121059B002B234600D110E197
:2025A000029103901F601F653560306830601A61A026304615461C4600F0D3FF2560304604
:2025C00000F0CFFF914F3C6891480561304600F0C8FF8F480560304600F0C3FF200B02219B
:2025E0000591084039688904C90F0C1888480561304600F0B6FF86480560304600F0B1FF39
:202600003F6883480561304600F0ABFF80480560304600F0A6FFA000390B059C214040185C
:202620007A4F39688904C90F0818019078480561304600F096FF76480560304600F091FFE0
:202640003F6873480561304600F08BFF70480560304600F086FF01988000390B21404018A4
:202660006A4C21688904C90F0818019068480561304600F076FF66480560304600F071FF2B
:20268000276863480561304600F06BFF60480560304600F066FF019880005D4C390B5A4B47
:2026A000069F059A11405B4A4018584909688904C90F08182561276027651A6019681960E4
:2026C0000099029E885525610398C007059000D048E7276027651A601868186046E764252D
:2026E000A02000F03EFF49480068384200D18CE5ACB2012C00D188E5A02000F032FF434803
:202700000068384200D180E5022C00D17DE5A02000F027FF3D480068384200D175E5ED1ECD
:202720002804DDD171E50220039050E06425A02000F017FF35480068304200D120E6ACB2A9
:20274000012C00D11CE6A02000F00BFF2F480068304200D114E6022C00D111E6A02000F0FD
:2027600000FF2A480068304200D109E6ED1E2804DDD105E66425A02000F0F3FE2348006881
:20278000384200D1CEE6ACB2012C00D1CAE6A02000F0E7FE1D480068384200D1C2E6022CAB
:2027A00000D1BFE6A02000F0DCFE18480068384200D1B7E6ED1E2804DDD1B3E603203B4647
:2027C000069F03901F601F6535603068306012481A6130601F611F64A027384634461E4676
:2027E00000F0BFFE04983060384600F0BAFE069830603065256020682060384600F0B1FE6D
:20280000039807B0F0BDC0468C80424080130A4090120A4081000E0081000200F0B587B06E
:20282000019202910490FB49FB4CFC4A0120450303900703256025650A6008680860256031
:2028400025650A60086808602760A026304600F088FEF348EF49086025612564304600F023
:2028600080FE27612761EE48EA49086025612564304600F076FE2760304600F072FE27612B
:2028800025602565E548E349086008680860304600F067FE2760304600F063FE2761E048C7
:2028A000DC49086025612564304600F05AFE2760304600F056FE2761D948D64908602561C7
:2028C0002564304600F04DFE2760304600F049FE276125602565D148CE4908600868086083
:2028E000304600F03EFE2760304600F03AFE276125602565C749C9480860086808603046A3
:2029000000F02FFE2760304600F02BFE2761C448C049086025612564304600F022FE276063
:20292000304600F01EFE2761BD48BA49086025612564304600F015FE2760304600F011FE99
:202940002761256006952565B448B249086008680860304600F005FE05972760304600F01C
:2029600000FEB0480068800460D4AE480068059B2361069D25602565A64EA84A32603168FC
:202980003160284275D12361A54F3760069D25612564A026304600F0E4FD05982060304695
:2029A00000F0DFFD059820619A48076025612564304600F0D6FD05982060304600F0D1FD4B
:2029C000059820619348076025612564304600F0C8FD05982060304600F0C3FD05982061FC
:2029E0008C48076025612564304600F0BAFD05982060304600F0B5FD0598206185480760E9
:202A0000074625612564304600F0ABFD05982060304600F0A6FD059820610498032848D821
:202A20007F48386006982061206449E06426A02000F097FD7B4800680699084295D0B7B2BB
:202A4000012F92D0A02000F08CFD76480068069908428AD0022F88D0A02000F082FD7148D1
:202A600000680699084200D17FE7F61E3004DED17BE7069D25602565326030683060236185
:202A80006748306025612564A02630461F4600F068FD2760304600F064FD256025655D49EF
:202AA0005E48086008680860304600F05AFD03982FE20698206020655848386038683860B4
:202AC000A026304600F04DFD059F2760304600F048FD27610498800706D451484D4908608E
:202AE00006982061206407E00698206020654B484849086008680860A026304600F031FDEB
:202B0000059F2760304600F02CFD27610498C00706D143483F4F386006982061206407E0FE
:202B20000698206020653D48FB4F386038683860A026304600F015FD059D2560304600F088
:202B400010FD2561069D25602565F648386038683860304600F005FD05982060304600F037
:202B600000FDEE480068284200D048E1EB480068059B2361069D25602565E74FE94A3A60E3
:202B800039683960284200D060E100210298039140562361002805D4E34939600699216130
:202BA000216405E00699216021653A6039683960C5B2A026304600F0D4FC059F276030461D
:202BC00000F0CFFC27610495680606D4D248D649016006982061206407E00698206020650A
:202BE000CD49D048086008680860A026304600F0B8FC059F2760304600F0B3FC2761049823
:202C0000800611D4C448C849016006982061206412E0C0468C80424090120A4081000E0027
:202C20008100020080130A40069820602065BA49BC48086008680860A026304600F091FC91
:202C4000059F2760304600F08CFC27610498C00606D4B148B449016006982061206407E0B6
:202C6000069820602065AC49AE48086008680860A026304600F075FC059F2760304600F058
:202C800070FC27610498000706D4A348A649016006982061206407E00698206020659E4974
:202CA000A048086008680860A026304600F059FC059F2760304600F054FC2761049840071F
:202CC00006D495489849016006982061206407E006982060206590499248086008680860DB
:202CE000A026304600F03DFC059F2760304600F038FC27610498800706D487488A49016022
:202D000006982061206407E006982060206582498448086008680860A026304600F021FC66
:202D2000059F2760304600F01CFC27610498C00707D1794F7C4838600698206120642546F5
:202D400008E0069820602065734F2546754C3C6038683860A026304600F003FC059C2C60CE
:202D6000304600F0FEFB2C610698286028656D48386038683860304600F0F3FB2C603046D9
:202D800000F0EFFB65480068069908422C4614D162480068059B2361069D256025655E4F6F
:202DA000604A3A6039683960284270D10399491C0198814200D0E9E68BE06426A02000F049
:202DC000D0FB5648006806990842E1D0B7B2012FDED0A02000F0C5FB5048006806990842E8
:202DE000D6D0022FD4D0A02000F0BBFB4B48006806990842CCD0F61E3004DFD1C8E7642641
:202E0000A02000F0AEFB454800680699084200D1ACE6B7B2012F00D1A8E6A02000F0A1FBD4
:202E20003E4800680699084200D19FE6022F00D19CE6A02000F095FB3848006806990842D0
:202E400000D193E6F61E3004DAD18FE6069D256025653A603868386023613348386025611F
:202E60002564A02630461C4600F07BFB2C480460304600F076FB2A480560056529483860CC
:202E800038683860304600F06CFB022041E00699216021653A6038683860236122483860EC
:202EA00021612164A026304625461C4600F059FB2C60304600F055FB069828602865194868
:202EC000386038683860304600F04BFB0398C01C1FE00699216021653A6038683860236104
:202EE0001148386021612164A026304625461C4600F037FB2C60304600F033FB0698286069
:202F000028650848386038683860304600F029FB0020C0B207B0F0BD8C80424080130A4019
:202F200090120A4081000E0081000200F0B585B00D46564F0178002916D0C61CB41EC9B20A
:202F4000384600F099FA217800290DD0741E384600F092FA2178002906D0384600F08CFAB9
:202F60003178F61C0029E9D1002D01D0494900E047490878002816D0CE1CB41EC1B2384678
:202F800000F07AFA217800290DD0741E384600F073FA2178002906D0384600F06DFA3078AC
:202FA000F61C0028E9D1002D6ED0012000900A272846394600F022FA0646394600F01EFA04
:202FC000019130247743E81B204302AE30706421284600F013FAB1780A2D09D3009A019B39
:202FE0002343642D08D3204303250024014605E07378009C254601E00225144602A8437073
:203000008170681E032100F0F9F9481C0027032800D00746009402D12E461C4C16E002A87D
:20302000801E0190194C019840194178204600F023FA012F09D0AE1E0198415D204600F07C
:203040001BFABF1E3546EED100E06E1E0098002812D102A83018C51EA978204600F00CFAE3
:203060006978204600F008FAF61E2978204600F003FAED1E002EEFD10D21204600F0FCF99D
:203080000A21204600F0F8F905B0F0BD008010403A38000022380000002A49D084468B0721
:2030A0001CD1830722D1102A08D370B4103A78C978C0103AFBD270BC103238D0042A2CD3F0
:2030C000082A05D30C2A01D308C908C008C908C008C908C092072AD0920F22E00B780370E5
:2030E000491C401C521E22D08B07F7D1C30714D18307D8D0121F12D308C903801B0C43801E
:20310000001D121FF8D20AE008C903701B0A43701B0A83701B0AC370001D121FF4D2121DDE
:2031200005D00B780370491C401C521EF9D160467047FEE71C481D490160026802604160EF
:20314000416841600168012252061143016041681143416082210165154941651549C1635F
:2031600015481649016102690261016002680260416042684260816082688260C160C26851
:20318000C2608162816A8162011F0D4A0A6008380260032000030B49086008640A48082110
:2031A000016001637047C0460480424083000C0082000400810001009080424081000D00D0
:2031C0008100020090120A40A0320A4010B51A491A4C204600F0B3F91949204600F0CAF85A
:2031E000184801680322D203914301600169164A0A4011320261416917220A4328218A43D7
:203200004261426801210A4043688B439A18426002684B0413430360C26820231343502281
:203220009343C360C2680223134305229343C36002680A43026010BD43380000008010409F
:2032400030380000009110400000FFFFF8B5451C00780023082B32D02F78C2070CD16A781A
:203260000F241440E41C122C0BD102242E57F4B2002E08D4EE1C0EE06D1C4A1C0F70114695
:203280001AE0AE1C08E02E1DED7800957F252C40009DED012C1912343D0112095219094DFD
:2032A000AA420ED0D243002C05D08D5C4F1C0D70641E3946F7E7354640085B1CCAE7284625
:2032C000C5E7F8BDFF0F00001CB5002922D04C08002900D5494242105440002800D5404251
:2032E00000230A00904201D95200FBE790425B41904200D3801A914201D25208F6E719001E
:20330000002C00D54042640000D549420200080011001CBD0100002000F001F81CBD7047D8
:2033200010B51149114800F0EBF811480246283A136801210C02A34313600246143A002382
:203340001360021F0723136002699A43026102691B029A4302610268042313430360026815
:203360000A43026010BDC0464138000000000F4028120F4070B511221302C218C4580125F1
:20338000AC43C4500C888D7825438C882C43C558084E2E40084D25407419C4508879CB7925
:2033A0000343087A184351687E23994318400818506070BDE798FDFF1867000010B509484F
:2033C00009494160094A5160094B5960094C616009490160116019602160102000F0C1F8DC
:2033E00010BDC04600080A40030000B100280A4000080F4000881040010000261CB50A0051
:2034000017D000230124E407A04200D20400944201D95200FBE790425B41904200D3801A49
:20342000914201D25208F6E719000200080011001CBD01000020FFF772FF1CBD70B50A48CA
:203440000A4C84420CD00A4D0A4EB54208D02A686968501C12789200A25890470835F4E722
:2034600000BF00BF70BDC046503800004838000058380000603800000A4A801802681206FD
:2034800005D50268120602D502681206F6D481610168C90705D00168C90702D00168C90779
:2034A000F6D17047081100000948002101600948014608390A6803239A430A60016801225E
:2034C0009143016001681202914301607047C04608030B4008010B40084880F3088800BF8C
:2034E00000BF00F04EF8002801D0FFF7A7FF0020FCF7E6FD012000F03DF8C0460080202040
:2035000070B50122120383180C785D680C26B54334402C195C60497883580724A3432140BD
:203520005918815070BD80B5FFF748FFFFF702FEFFF7BAFFFFF7F4FEFFF748FE80BD10B5DF
:203540000122120383180C789C604978815010BD80B50B4603214258C11D184600F006F84B
:2035600080BD811E091F00BFFCD2704780B5FFF793FD80BD00F001F8FEE700BF7047ABE735
:083580007047012070470000B4
:20358800416374696F6E3A20736C6F77205044206C696E6520666F6C6C6F7720776974689B
:2035A80020656E636F64657220737065656420636F6E74726F6C2E204C6966742077686570
:2035C800656C73206265666F726520666972737420746573742E0D0A004472697665206D18
:2035E800617070696E673A206C6566743D4D322072696768743D4D342C204D322F4D3420EC
:20360800666F7277617264207369676E732061726520696E76657274656420696E20636FA7
:2036280064650D0A004D6F746F7220636F6E6669673A20656E636F6465722054542C206C41
:20364800696E653D31332C20726174696F3D34352C20776865656C3D36386D6D2C20646579
:2036680061647A6F6E653D313235300D0A006D6F746F7220636F6E666967206661696C65BD
:20368800643B20636865636B2035562F474E442F5344412F53434C20776972696E67206268
:2036A80065666F7265206D6F76696E6720776865656C730D0A0047726179204750494F3A66
:2036C8002053313D504131342053323D504131352053333D504131362053343D504131377A
:2036E8002053353D504132312C20626C61636B3D300D0A00446562756720554152543A207F
:2037080050413130205458202F20504131312052582C2031313532303020384E310D0A0054
:203728004D6F746F72204949433A205344413D504131332053434C3D50413132206164649B
:20374800723D307832360D0A006C696E6520666F6C6C6F77657220737461727473206166B1
:203768007465722033207365636F6E64730D0A000D0A4D53504D3020352D6368616E6E650A
:203788006C2067726179206C696E6520666F6C6C6F7765720D0A00736574206D6F746F72DC
:2037A800207479706520545420656E636F6465720073657420776865656C206469616D65B6
:2037C8007465722036386D6D0073657420726564756374696F6E20726174696F203435002D
:2037E80073657420656E636F646572206C696E657320313300696E697469616C206D6F745C
:203808006F722073746F700073657420646561647A6F6E652031323530003A2049494320EC
:203828006572726F72200000000018000000003000003A204F4B0D0A0008000800000000D3
:183848004D3200005135000000030000FFF000005038000000002020A9
:00000001FF
